{
  "_format": "hh-sol-artifact-1",
  "contractName": "EgyptianNFT",
  "sourceName": "contracts/EgyptianNFT.sol",
  "abi": [
    {
      "inputs": [],
      "stateMutability": "nonpayable",
      "type": "constructor"
    },
    {
      "anonymous": false,
      "inputs": [
        {
          "indexed": true,
          "internalType": "address",
          "name": "owner",
          "type": "address"
        },
        {
          "indexed": true,
          "internalType": "address",
          "name": "approved",
          "type": "address"
        },
        {
          "indexed": true,
          "internalType": "uint256",
          "name": "tokenId",
          "type": "uint256"
        }
      ],
      "name": "Approval",
      "type": "event"
    },
    {
      "anonymous": false,
      "inputs": [
        {
          "indexed": true,
          "internalType": "address",
          "name": "owner",
          "type": "address"
        },
        {
          "indexed": true,
          "internalType": "address",
          "name": "operator",
          "type": "address"
        },
        {
          "indexed": false,
          "internalType": "bool",
          "name": "approved",
          "type": "bool"
        }
      ],
      "name": "ApprovalForAll",
      "type": "event"
    },
    {
      "anonymous": false,
      "inputs": [
        {
          "indexed": false,
          "internalType": "address",
          "name": "sender",
          "type": "address"
        },
        {
          "indexed": false,
          "internalType": "uint256",
          "name": "tokenId",
          "type": "uint256"
        }
      ],
      "name": "EgyptianNFTMinted",
      "type": "event"
    },
    {
      "anonymous": false,
      "inputs": [
        {
          "indexed": true,
          "internalType": "address",
          "name": "from",
          "type": "address"
        },
        {
          "indexed": true,
          "internalType": "address",
          "name": "to",
          "type": "address"
        },
        {
          "indexed": true,
          "internalType": "uint256",
          "name": "tokenId",
          "type": "uint256"
        }
      ],
      "name": "Transfer",
      "type": "event"
    },
    {
      "inputs": [
        {
          "internalType": "address",
          "name": "to",
          "type": "address"
        },
        {
          "internalType": "uint256",
          "name": "tokenId",
          "type": "uint256"
        }
      ],
      "name": "approve",
      "outputs": [],
      "stateMutability": "nonpayable",
      "type": "function"
    },
    {
      "inputs": [
        {
          "internalType": "address",
          "name": "owner",
          "type": "address"
        }
      ],
      "name": "balanceOf",
      "outputs": [
        {
          "internalType": "uint256",
          "name": "",
          "type": "uint256"
        }
      ],
      "stateMutability": "view",
      "type": "function"
    },
    {
      "inputs": [
        {
          "internalType": "uint256",
          "name": "tokenId",
          "type": "uint256"
        }
      ],
      "name": "getApproved",
      "outputs": [
        {
          "internalType": "address",
          "name": "",
          "type": "address"
        }
      ],
      "stateMutability": "view",
      "type": "function"
    },
    {
      "inputs": [
        {
          "internalType": "address",
          "name": "owner",
          "type": "address"
        },
        {
          "internalType": "address",
          "name": "operator",
          "type": "address"
        }
      ],
      "name": "isApprovedForAll",
      "outputs": [
        {
          "internalType": "bool",
          "name": "",
          "type": "bool"
        }
      ],
      "stateMutability": "view",
      "type": "function"
    },
    {
      "inputs": [],
      "name": "makeAnEpicNFT",
      "outputs": [],
      "stateMutability": "nonpayable",
      "type": "function"
    },
    {
      "inputs": [],
      "name": "name",
      "outputs": [
        {
          "internalType": "string",
          "name": "",
          "type": "string"
        }
      ],
      "stateMutability": "view",
      "type": "function"
    },
    {
      "inputs": [
        {
          "internalType": "uint256",
          "name": "tokenId",
          "type": "uint256"
        }
      ],
      "name": "ownerOf",
      "outputs": [
        {
          "internalType": "address",
          "name": "",
          "type": "address"
        }
      ],
      "stateMutability": "view",
      "type": "function"
    },
    {
      "inputs": [
        {
          "internalType": "uint256",
          "name": "tokenId",
          "type": "uint256"
        }
      ],
      "name": "pickRandomColor",
      "outputs": [
        {
          "internalType": "string",
          "name": "",
          "type": "string"
        }
      ],
      "stateMutability": "view",
      "type": "function"
    },
    {
      "inputs": [
        {
          "internalType": "uint256",
          "name": "tokenId",
          "type": "uint256"
        }
      ],
      "name": "pickRandomFirstWord",
      "outputs": [
        {
          "internalType": "string",
          "name": "",
          "type": "string"
        }
      ],
      "stateMutability": "view",
      "type": "function"
    },
    {
      "inputs": [
        {
          "internalType": "uint256",
          "name": "tokenId",
          "type": "uint256"
        }
      ],
      "name": "pickRandomSecondWord",
      "outputs": [
        {
          "internalType": "string",
          "name": "",
          "type": "string"
        }
      ],
      "stateMutability": "view",
      "type": "function"
    },
    {
      "inputs": [
        {
          "internalType": "uint256",
          "name": "tokenId",
          "type": "uint256"
        }
      ],
      "name": "pickRandomThirdWord",
      "outputs": [
        {
          "internalType": "string",
          "name": "",
          "type": "string"
        }
      ],
      "stateMutability": "view",
      "type": "function"
    },
    {
      "inputs": [
        {
          "internalType": "address",
          "name": "from",
          "type": "address"
        },
        {
          "internalType": "address",
          "name": "to",
          "type": "address"
        },
        {
          "internalType": "uint256",
          "name": "tokenId",
          "type": "uint256"
        }
      ],
      "name": "safeTransferFrom",
      "outputs": [],
      "stateMutability": "nonpayable",
      "type": "function"
    },
    {
      "inputs": [
        {
          "internalType": "address",
          "name": "from",
          "type": "address"
        },
        {
          "internalType": "address",
          "name": "to",
          "type": "address"
        },
        {
          "internalType": "uint256",
          "name": "tokenId",
          "type": "uint256"
        },
        {
          "internalType": "bytes",
          "name": "_data",
          "type": "bytes"
        }
      ],
      "name": "safeTransferFrom",
      "outputs": [],
      "stateMutability": "nonpayable",
      "type": "function"
    },
    {
      "inputs": [
        {
          "internalType": "address",
          "name": "operator",
          "type": "address"
        },
        {
          "internalType": "bool",
          "name": "approved",
          "type": "bool"
        }
      ],
      "name": "setApprovalForAll",
      "outputs": [],
      "stateMutability": "nonpayable",
      "type": "function"
    },
    {
      "inputs": [
        {
          "internalType": "string",
          "name": "NFT",
          "type": "string"
        }
      ],
      "name": "setDesiredNFT",
      "outputs": [
        {
          "internalType": "string",
          "name": "",
          "type": "string"
        }
      ],
      "stateMutability": "nonpayable",
      "type": "function"
    },
    {
      "inputs": [
        {
          "internalType": "bytes4",
          "name": "interfaceId",
          "type": "bytes4"
        }
      ],
      "name": "supportsInterface",
      "outputs": [
        {
          "internalType": "bool",
          "name": "",
          "type": "bool"
        }
      ],
      "stateMutability": "view",
      "type": "function"
    },
    {
      "inputs": [],
      "name": "symbol",
      "outputs": [
        {
          "internalType": "string",
          "name": "",
          "type": "string"
        }
      ],
      "stateMutability": "view",
      "type": "function"
    },
    {
      "inputs": [
        {
          "internalType": "uint256",
          "name": "tokenId",
          "type": "uint256"
        }
      ],
      "name": "tokenURI",
      "outputs": [
        {
          "internalType": "string",
          "name": "",
          "type": "string"
        }
      ],
      "stateMutability": "view",
      "type": "function"
    },
    {
      "inputs": [
        {
          "internalType": "address",
          "name": "from",
          "type": "address"
        },
        {
          "internalType": "address",
          "name": "to",
          "type": "address"
        },
        {
          "internalType": "uint256",
          "name": "tokenId",
          "type": "uint256"
        }
      ],
      "name": "transferFrom",
      "outputs": [],
      "stateMutability": "nonpayable",
      "type": "function"
    }
  ],
  "bytecode": "0x608060405260405180602001604052806000815250600890805190602001906200002b9291906200358e565b5060405180610180016040528061015a81526020016200806a61015a913960099080519060200190620000609291906200358e565b506040518060600160405280602481526020016200804660249139600a9080519060200190620000929291906200358e565b506040518060e0016040528060a7815260200162007f9f60a79139600b9080519060200190620000c49291906200358e565b50604051806020016040528060405180602001604052806000815250815250600c906001620000f59291906200361f565b50604051806020016040528060405180602001604052806000815250815250600d906001620001269291906200361f565b50604051806020016040528060405180602001604052806000815250815250600e906001620001579291906200361f565b506040518060a001604052806040518060400160405280600781526020017f234646303030300000000000000000000000000000000000000000000000000081525081526020016040518060400160405280600781526020017f233030464630300000000000000000000000000000000000000000000000000081525081526020016040518060400160405280600781526020017f233030303046460000000000000000000000000000000000000000000000000081525081526020016040518060400160405280600781526020017f234646303046460000000000000000000000000000000000000000000000000081525081526020016040518060400160405280600781526020017f2346464646303000000000000000000000000000000000000000000000000000815250815250600f9060056200029a92919062003686565b5060405180602001604052806040518060400160405280600b81526020017f547574616e6b68616d756e0000000000000000000000000000000000000000008152508152506010906001620002f19291906200361f565b506040518061032001604052806040518060400160405280600881526020017f4d616a657374696300000000000000000000000000000000000000000000000081525081526020016040518060400160405280600781526020017f4578616c7465640000000000000000000000000000000000000000000000000081525081526020016040518060400160405280600881526020017f506f77657266756c00000000000000000000000000000000000000000000000081525081526020016040518060400160405280600781526020017f457465726e616c0000000000000000000000000000000000000000000000000081525081526020016040518060400160405280600981526020017f4469676e6966696564000000000000000000000000000000000000000000000081525081526020016040518060400160405280600b81526020017f496e666c75656e7469616c00000000000000000000000000000000000000000081525081526020016040518060400160405280600681526020017f506f74656e74000000000000000000000000000000000000000000000000000081525081526020016040518060400160405280600a81526020017f506572737561736976650000000000000000000000000000000000000000000081525081526020016040518060400160405280600781526020017f526576657265640000000000000000000000000000000000000000000000000081525081526020016040518060400160405280600481526020017f486f6c790000000000000000000000000000000000000000000000000000000081525081526020016040518060400160405280600581526020017f476f646c7900000000000000000000000000000000000000000000000000000081525081526020016040518060400160405280600881526020017f496d6d6f7274616c00000000000000000000000000000000000000000000000081525081526020016040518060400160405280600e81526020017f496e646573747275637469626c6500000000000000000000000000000000000081525081526020016040518060400160405280600981526020017f50657270657475616c000000000000000000000000000000000000000000000081525081526020016040518060400160405280600681526020017f4d6967687479000000000000000000000000000000000000000000000000000081525081526020016040518060400160405280600a81526020017f436f6d6d616e64696e670000000000000000000000000000000000000000000081525081526020016040518060400160405280600881526020017f5669676f726f757300000000000000000000000000000000000000000000000081525081526020016040518060400160405280600a81526020017f466f726d696461626c650000000000000000000000000000000000000000000081525081526020016040518060400160405280600481526020017f5765616b0000000000000000000000000000000000000000000000000000000081525081526020016040518060400160405280600881526020017f436f776172646c7900000000000000000000000000000000000000000000000081525081526020016040518060400160405280600481526020017f5369636b0000000000000000000000000000000000000000000000000000000081525081526020016040518060400160405280600581526020017f467261696c00000000000000000000000000000000000000000000000000000081525081526020016040518060400160405280600b81526020017f496e636f6d706574656e7400000000000000000000000000000000000000000081525081526020016040518060400160405280600881526020017f506174686574696300000000000000000000000000000000000000000000000081525081526020016040518060400160405280600581526020017f4479696e670000000000000000000000000000000000000000000000000000008152508152506011906019620008d1929190620036ed565b50604051806101c001604052806040518060400160405280600781526020017f50686172616f680000000000000000000000000000000000000000000000000081525081526020016040518060400160405280600681526020017f4c6567656e64000000000000000000000000000000000000000000000000000081525081526020016040518060400160405280600481526020017f4b696e670000000000000000000000000000000000000000000000000000000081525081526020016040518060400160405280600581526020017f52756c657200000000000000000000000000000000000000000000000000000081525081526020016040518060400160405280600981526020017f536f7665726569676e000000000000000000000000000000000000000000000081525081526020016040518060400160405280600781526020017f456d7065726f720000000000000000000000000000000000000000000000000081525081526020016040518060400160405280600781526020017f4d6f6e617263680000000000000000000000000000000000000000000000000081525081526020016040518060400160405280600681526020017f4c6561646572000000000000000000000000000000000000000000000000000081525081526020016040518060400160405280600981526020017f436f6d6d616e646572000000000000000000000000000000000000000000000081525081526020016040518060400160405280600481526020017f426f73730000000000000000000000000000000000000000000000000000000081525081526020016040518060400160405280600481526020017f4c6f72640000000000000000000000000000000000000000000000000000000081525081526020016040518060400160405280600881526020017f4469726563746f7200000000000000000000000000000000000000000000000081525081526020016040518060400160405280600681526020017f44796e617374000000000000000000000000000000000000000000000000000081525081526020016040518060400160405280600581526020017f4368696c64000000000000000000000000000000000000000000000000000000815250815250601290600e62000c2892919062003754565b5060405180602001604052806040518060400160405280600281526020017f5261000000000000000000000000000000000000000000000000000000000000815250815250601390600162000c7f9291906200361f565b506040518061032001604052806040518060400160405280600881526020017f4d616a657374696300000000000000000000000000000000000000000000000081525081526020016040518060400160405280600781526020017f4578616c7465640000000000000000000000000000000000000000000000000081525081526020016040518060400160405280600881526020017f506f77657266756c00000000000000000000000000000000000000000000000081525081526020016040518060400160405280600781526020017f457465726e616c0000000000000000000000000000000000000000000000000081525081526020016040518060400160405280600981526020017f4469676e6966696564000000000000000000000000000000000000000000000081525081526020016040518060400160405280600b81526020017f496e666c75656e7469616c00000000000000000000000000000000000000000081525081526020016040518060400160405280600681526020017f506f74656e74000000000000000000000000000000000000000000000000000081525081526020016040518060400160405280600a81526020017f506572737561736976650000000000000000000000000000000000000000000081525081526020016040518060400160405280600781526020017f526576657265640000000000000000000000000000000000000000000000000081525081526020016040518060400160405280600481526020017f486f6c790000000000000000000000000000000000000000000000000000000081525081526020016040518060400160405280600581526020017f476f646c7900000000000000000000000000000000000000000000000000000081525081526020016040518060400160405280600881526020017f496d6d6f7274616c00000000000000000000000000000000000000000000000081525081526020016040518060400160405280600e81526020017f496e646573747275637469626c6500000000000000000000000000000000000081525081526020016040518060400160405280600981526020017f50657270657475616c000000000000000000000000000000000000000000000081525081526020016040518060400160405280600681526020017f4d6967687479000000000000000000000000000000000000000000000000000081525081526020016040518060400160405280600a81526020017f436f6d6d616e64696e670000000000000000000000000000000000000000000081525081526020016040518060400160405280600881526020017f5669676f726f757300000000000000000000000000000000000000000000000081525081526020016040518060400160405280600a81526020017f466f726d696461626c650000000000000000000000000000000000000000000081525081526020016040518060400160405280600481526020017f5765616b0000000000000000000000000000000000000000000000000000000081525081526020016040518060400160405280600881526020017f436f776172646c7900000000000000000000000000000000000000000000000081525081526020016040518060400160405280600481526020017f5369636b0000000000000000000000000000000000000000000000000000000081525081526020016040518060400160405280600581526020017f467261696c00000000000000000000000000000000000000000000000000000081525081526020016040518060400160405280600b81526020017f496e636f6d706574656e7400000000000000000000000000000000000000000081525081526020016040518060400160405280600881526020017f506174686574696300000000000000000000000000000000000000000000000081525081526020016040518060400160405280600581526020017f4479696e6700000000000000000000000000000000000000000000000000000081525081525060149060196200125f929190620036ed565b50604051806101e001604052806040518060400160405280600381526020017f476f64000000000000000000000000000000000000000000000000000000000081525081526020016040518060400160405280600781526020017f50686172616f680000000000000000000000000000000000000000000000000081525081526020016040518060400160405280600681526020017f4c6567656e64000000000000000000000000000000000000000000000000000081525081526020016040518060400160405280600481526020017f4b696e670000000000000000000000000000000000000000000000000000000081525081526020016040518060400160405280600581526020017f52756c657200000000000000000000000000000000000000000000000000000081525081526020016040518060400160405280600981526020017f536f7665726569676e000000000000000000000000000000000000000000000081525081526020016040518060400160405280600781526020017f456d7065726f720000000000000000000000000000000000000000000000000081525081526020016040518060400160405280600781526020017f4d6f6e617263680000000000000000000000000000000000000000000000000081525081526020016040518060400160405280600681526020017f4c6561646572000000000000000000000000000000000000000000000000000081525081526020016040518060400160405280600981526020017f436f6d6d616e646572000000000000000000000000000000000000000000000081525081526020016040518060400160405280600481526020017f426f73730000000000000000000000000000000000000000000000000000000081525081526020016040518060400160405280600481526020017f4c6f72640000000000000000000000000000000000000000000000000000000081525081526020016040518060400160405280600881526020017f4469726563746f7200000000000000000000000000000000000000000000000081525081526020016040518060400160405280600681526020017f44796e617374000000000000000000000000000000000000000000000000000081525081526020016040518060400160405280600581526020017f4368696c64000000000000000000000000000000000000000000000000000000815250815250601590600f620015f1929190620037bb565b5060405180602001604052806040518060400160405280600681526020017f53657368617400000000000000000000000000000000000000000000000000008152508152506016906001620016489291906200361f565b506040518061032001604052806040518060400160405280600881526020017f4d616a657374696300000000000000000000000000000000000000000000000081525081526020016040518060400160405280600781526020017f4578616c7465640000000000000000000000000000000000000000000000000081525081526020016040518060400160405280600881526020017f506f77657266756c00000000000000000000000000000000000000000000000081525081526020016040518060400160405280600781526020017f457465726e616c0000000000000000000000000000000000000000000000000081525081526020016040518060400160405280600981526020017f4469676e6966696564000000000000000000000000000000000000000000000081525081526020016040518060400160405280600b81526020017f496e666c75656e7469616c00000000000000000000000000000000000000000081525081526020016040518060400160405280600681526020017f506f74656e74000000000000000000000000000000000000000000000000000081525081526020016040518060400160405280600a81526020017f506572737561736976650000000000000000000000000000000000000000000081525081526020016040518060400160405280600781526020017f526576657265640000000000000000000000000000000000000000000000000081525081526020016040518060400160405280600481526020017f486f6c790000000000000000000000000000000000000000000000000000000081525081526020016040518060400160405280600581526020017f476f646c7900000000000000000000000000000000000000000000000000000081525081526020016040518060400160405280600881526020017f496d6d6f7274616c00000000000000000000000000000000000000000000000081525081526020016040518060400160405280600e81526020017f496e646573747275637469626c6500000000000000000000000000000000000081525081526020016040518060400160405280600981526020017f50657270657475616c000000000000000000000000000000000000000000000081525081526020016040518060400160405280600681526020017f4d6967687479000000000000000000000000000000000000000000000000000081525081526020016040518060400160405280600a81526020017f436f6d6d616e64696e670000000000000000000000000000000000000000000081525081526020016040518060400160405280600881526020017f5669676f726f757300000000000000000000000000000000000000000000000081525081526020016040518060400160405280600a81526020017f466f726d696461626c650000000000000000000000000000000000000000000081525081526020016040518060400160405280600481526020017f5765616b0000000000000000000000000000000000000000000000000000000081525081526020016040518060400160405280600881526020017f436f776172646c7900000000000000000000000000000000000000000000000081525081526020016040518060400160405280600481526020017f5369636b0000000000000000000000000000000000000000000000000000000081525081526020016040518060400160405280600581526020017f467261696c00000000000000000000000000000000000000000000000000000081525081526020016040518060400160405280600b81526020017f496e636f6d706574656e7400000000000000000000000000000000000000000081525081526020016040518060400160405280600881526020017f506174686574696300000000000000000000000000000000000000000000000081525081526020016040518060400160405280600581526020017f4479696e67000000000000000000000000000000000000000000000000000000815250815250601790601962001c28929190620036ed565b50604051806101a001604052806040518060400160405280600781526020017f50686172616f680000000000000000000000000000000000000000000000000081525081526020016040518060400160405280600581526020017f517565656e00000000000000000000000000000000000000000000000000000081525081526020016040518060400160405280600581526020017f52756c657200000000000000000000000000000000000000000000000000000081525081526020016040518060400160405280600981526020017f536f7665726569676e000000000000000000000000000000000000000000000081525081526020016040518060400160405280600781526020017f456d7065726f720000000000000000000000000000000000000000000000000081525081526020016040518060400160405280600781526020017f4d6f6e617263680000000000000000000000000000000000000000000000000081525081526020016040518060400160405280600681526020017f4c6561646572000000000000000000000000000000000000000000000000000081525081526020016040518060400160405280600981526020017f436f6d6d616e646572000000000000000000000000000000000000000000000081525081526020016040518060400160405280600481526020017f426f73730000000000000000000000000000000000000000000000000000000081525081526020016040518060400160405280600481526020017f4c6f72640000000000000000000000000000000000000000000000000000000081525081526020016040518060400160405280600881526020017f4469726563746f7200000000000000000000000000000000000000000000000081525081526020016040518060400160405280600681526020017f44796e617374000000000000000000000000000000000000000000000000000081525081526020016040518060400160405280600581526020017f4368696c64000000000000000000000000000000000000000000000000000000815250815250601890600d62001f4492919062003822565b5060405180602001604052806040518060400160405280600481526020017f416d756e00000000000000000000000000000000000000000000000000000000815250815250601990600162001f9b9291906200361f565b506040518061032001604052806040518060400160405280600781526020017f536b696c6c65640000000000000000000000000000000000000000000000000081525081526020016040518060400160405280600c81526020017f496e74656c6c65637475616c000000000000000000000000000000000000000081525081526020016040518060400160405280600581526020017f416465707400000000000000000000000000000000000000000000000000000081525081526020016040518060400160405280600681526020017f457870657274000000000000000000000000000000000000000000000000000081525081526020016040518060400160405280600a81526020017f5370656369616c6973740000000000000000000000000000000000000000000081525081526020016040518060400160405280600b81526020017f496e666c75656e7469616c00000000000000000000000000000000000000000081525081526020016040518060400160405280600681526020017f4e6f76696365000000000000000000000000000000000000000000000000000081525081526020016040518060400160405280600481526020017f426f6c640000000000000000000000000000000000000000000000000000000081525081526020016040518060400160405280600581526020017f4c6f76656400000000000000000000000000000000000000000000000000000081525081526020016040518060400160405280600781526020017f41646d697265640000000000000000000000000000000000000000000000000081525081526020016040518060400160405280600681526020017f466561726564000000000000000000000000000000000000000000000000000081525081526020016040518060400160405280600881526020017f467269656e646c7900000000000000000000000000000000000000000000000081525081526020016040518060400160405280600581526020017f4c6f79616c00000000000000000000000000000000000000000000000000000081525081526020016040518060400160405280600681526020017f537475706964000000000000000000000000000000000000000000000000000081525081526020016040518060400160405280600681526020017f4d6967687479000000000000000000000000000000000000000000000000000081525081526020016040518060400160405280600a81526020017f436f6d6d616e64696e670000000000000000000000000000000000000000000081525081526020016040518060400160405280600881526020017f5669676f726f757300000000000000000000000000000000000000000000000081525081526020016040518060400160405280600a81526020017f466f726d696461626c650000000000000000000000000000000000000000000081525081526020016040518060400160405280600481526020017f5765616b0000000000000000000000000000000000000000000000000000000081525081526020016040518060400160405280600881526020017f436f776172646c7900000000000000000000000000000000000000000000000081525081526020016040518060400160405280600481526020017f5369636b0000000000000000000000000000000000000000000000000000000081525081526020016040518060400160405280600581526020017f467261696c00000000000000000000000000000000000000000000000000000081525081526020016040518060400160405280600b81526020017f496e636f6d706574656e7400000000000000000000000000000000000000000081525081526020016040518060400160405280600881526020017f506174686574696300000000000000000000000000000000000000000000000081525081526020016040518060400160405280600581526020017f4479696e67000000000000000000000000000000000000000000000000000000815250815250601a9060196200257b929190620036ed565b506040518061022001604052806040518060400160405280600681526020017f536372696265000000000000000000000000000000000000000000000000000081525081526020016040518060400160405280600581526020017f42616b657200000000000000000000000000000000000000000000000000000081525081526020016040518060400160405280600681526020017f4661726d6572000000000000000000000000000000000000000000000000000081525081526020016040518060400160405280600681526020017f507269657374000000000000000000000000000000000000000000000000000081525081526020016040518060400160405280600681526020017f446f63746f72000000000000000000000000000000000000000000000000000081525081526020016040518060400160405280600981526020017f4372616674736d616e000000000000000000000000000000000000000000000081525081526020016040518060400160405280600881526020017f4d65726368616e7400000000000000000000000000000000000000000000000081525081526020016040518060400160405280600981526020017f48657262616c697374000000000000000000000000000000000000000000000081525081526020016040518060400160405280600581526020017f546869656600000000000000000000000000000000000000000000000000000081525081526020016040518060400160405280600781526020017f4361707469616e0000000000000000000000000000000000000000000000000081525081526020016040518060400160405280600581526020017f4d616a6f7200000000000000000000000000000000000000000000000000000081525081526020016040518060400160405280600a81526020017f4c69657574656e616e740000000000000000000000000000000000000000000081525081526020016040518060400160405280600781526020017f526563727569740000000000000000000000000000000000000000000000000081525081526020016040518060400160405280600681526020017f5361696c6f72000000000000000000000000000000000000000000000000000081525081526020016040518060400160405280600981526020017f54726176656c6c6572000000000000000000000000000000000000000000000081525081526020016040518060400160405280600a81526020017f536869702d6d616b65720000000000000000000000000000000000000000000081525081526020016040518060400160405280600981526020017f537461626c656d616e0000000000000000000000000000000000000000000000815250815250601b9060116200298392919062003889565b5060405180602001604052806040518060400160405280600481526020017f4861706900000000000000000000000000000000000000000000000000000000815250815250601c906001620029da9291906200361f565b506040518061032001604052806040518060400160405280600781526020017f536b696c6c65640000000000000000000000000000000000000000000000000081525081526020016040518060400160405280600c81526020017f496e74656c6c65637475616c000000000000000000000000000000000000000081525081526020016040518060400160405280600581526020017f416465707400000000000000000000000000000000000000000000000000000081525081526020016040518060400160405280600681526020017f457870657274000000000000000000000000000000000000000000000000000081525081526020016040518060400160405280600a81526020017f5370656369616c6973740000000000000000000000000000000000000000000081525081526020016040518060400160405280600b81526020017f496e666c75656e7469616c00000000000000000000000000000000000000000081525081526020016040518060400160405280600681526020017f4e6f76696365000000000000000000000000000000000000000000000000000081525081526020016040518060400160405280600481526020017f426f6c640000000000000000000000000000000000000000000000000000000081525081526020016040518060400160405280600581526020017f4c6f76656400000000000000000000000000000000000000000000000000000081525081526020016040518060400160405280600781526020017f41646d697265640000000000000000000000000000000000000000000000000081525081526020016040518060400160405280600681526020017f466561726564000000000000000000000000000000000000000000000000000081525081526020016040518060400160405280600881526020017f467269656e646c7900000000000000000000000000000000000000000000000081525081526020016040518060400160405280600581526020017f4c6f79616c00000000000000000000000000000000000000000000000000000081525081526020016040518060400160405280600681526020017f537475706964000000000000000000000000000000000000000000000000000081525081526020016040518060400160405280600681526020017f4d6967687479000000000000000000000000000000000000000000000000000081525081526020016040518060400160405280600a81526020017f436f6d6d616e64696e670000000000000000000000000000000000000000000081525081526020016040518060400160405280600881526020017f5669676f726f757300000000000000000000000000000000000000000000000081525081526020016040518060400160405280600a81526020017f466f726d696461626c650000000000000000000000000000000000000000000081525081526020016040518060400160405280600481526020017f5765616b0000000000000000000000000000000000000000000000000000000081525081526020016040518060400160405280600881526020017f436f776172646c7900000000000000000000000000000000000000000000000081525081526020016040518060400160405280600481526020017f5369636b0000000000000000000000000000000000000000000000000000000081525081526020016040518060400160405280600581526020017f467261696c00000000000000000000000000000000000000000000000000000081525081526020016040518060400160405280600b81526020017f496e636f6d706574656e7400000000000000000000000000000000000000000081525081526020016040518060400160405280600881526020017f506174686574696300000000000000000000000000000000000000000000000081525081526020016040518060400160405280600581526020017f4479696e67000000000000000000000000000000000000000000000000000000815250815250601d90601962002fba929190620036ed565b506040518061022001604052806040518060400160405280600681526020017f536372696265000000000000000000000000000000000000000000000000000081525081526020016040518060400160405280600581526020017f42616b657200000000000000000000000000000000000000000000000000000081525081526020016040518060400160405280600681526020017f4661726d6572000000000000000000000000000000000000000000000000000081525081526020016040518060400160405280600681526020017f507269657374000000000000000000000000000000000000000000000000000081525081526020016040518060400160405280600681526020017f446f63746f72000000000000000000000000000000000000000000000000000081525081526020016040518060400160405280600981526020017f4372616674736d616e000000000000000000000000000000000000000000000081525081526020016040518060400160405280600881526020017f4d65726368616e7400000000000000000000000000000000000000000000000081525081526020016040518060400160405280600981526020017f48657262616c697374000000000000000000000000000000000000000000000081525081526020016040518060400160405280600581526020017f546869656600000000000000000000000000000000000000000000000000000081525081526020016040518060400160405280600781526020017f4361707469616e0000000000000000000000000000000000000000000000000081525081526020016040518060400160405280600581526020017f4d616a6f7200000000000000000000000000000000000000000000000000000081525081526020016040518060400160405280600a81526020017f4c69657574656e616e740000000000000000000000000000000000000000000081525081526020016040518060400160405280600781526020017f526563727569740000000000000000000000000000000000000000000000000081525081526020016040518060400160405280600681526020017f5361696c6f72000000000000000000000000000000000000000000000000000081525081526020016040518060400160405280600981526020017f54726176656c6c6572000000000000000000000000000000000000000000000081525081526020016040518060400160405280600a81526020017f536869702d6d616b65720000000000000000000000000000000000000000000081525081526020016040518060400160405280600981526020017f537461626c656d616e0000000000000000000000000000000000000000000000815250815250601e906011620033c292919062003889565b50348015620033d057600080fd5b506040518060400160405280601981526020017f416e6369656e742045677969707469616e204e465473207631000000000000008152506040518060400160405280600481526020017f45504943000000000000000000000000000000000000000000000000000000008152508160009080519060200190620034559291906200358e565b5080600190805190602001906200346e9291906200358e565b505050620034bc6040518060400160405280601e81526020017f54686973206973206d79204e465420636f6e74726163742e20576f6168210000815250620034c260201b62001b041760201c565b62003aaa565b6200356281604051602401620034d99190620039be565b6040516020818303038152906040527f41304fac000000000000000000000000000000000000000000000000000000007bffffffffffffffffffffffffffffffffffffffffffffffffffffffff19166020820180517bffffffffffffffffffffffffffffffffffffffffffffffffffffffff83818316178352505050506200356560201b60201c565b50565b60008151905060006a636f6e736f6c652e6c6f679050602083016000808483855afa5050505050565b8280546200359c9062003a34565b90600052602060002090601f016020900481019282620035c057600085556200360c565b82601f10620035db57805160ff19168380011785556200360c565b828001600101855582156200360c579182015b828111156200360b578251825591602001919060010190620035ee565b5b5090506200361b9190620038f0565b5090565b82805482825590600052602060002090810192821562003673579160200282015b8281111562003672578251829080519060200190620036619291906200358e565b509160200191906001019062003640565b5b5090506200368291906200390f565b5090565b828054828255906000526020600020908101928215620036da579160200282015b82811115620036d9578251829080519060200190620036c89291906200358e565b5091602001919060010190620036a7565b5b509050620036e991906200390f565b5090565b82805482825590600052602060002090810192821562003741579160200282015b82811115620037405782518290805190602001906200372f9291906200358e565b50916020019190600101906200370e565b5b5090506200375091906200390f565b5090565b828054828255906000526020600020908101928215620037a8579160200282015b82811115620037a7578251829080519060200190620037969291906200358e565b509160200191906001019062003775565b5b509050620037b791906200390f565b5090565b8280548282559060005260206000209081019282156200380f579160200282015b828111156200380e578251829080519060200190620037fd9291906200358e565b5091602001919060010190620037dc565b5b5090506200381e91906200390f565b5090565b82805482825590600052602060002090810192821562003876579160200282015b8281111562003875578251829080519060200190620038649291906200358e565b509160200191906001019062003843565b5b5090506200388591906200390f565b5090565b828054828255906000526020600020908101928215620038dd579160200282015b82811115620038dc578251829080519060200190620038cb9291906200358e565b5091602001919060010190620038aa565b5b509050620038ec91906200390f565b5090565b5b808211156200390b576000816000905550600101620038f1565b5090565b5b8082111562003933576000818162003929919062003937565b5060010162003910565b5090565b508054620039459062003a34565b6000825580601f106200395957506200397a565b601f016020900490600052602060002090810190620039799190620038f0565b5b50565b60006200398a82620039e2565b620039968185620039ed565b9350620039a8818560208601620039fe565b620039b38162003a99565b840191505092915050565b60006020820190508181036000830152620039da81846200397d565b905092915050565b600081519050919050565b600082825260208201905092915050565b60005b8381101562003a1e57808201518184015260208101905062003a01565b8381111562003a2e576000848401525b50505050565b6000600282049050600182168062003a4d57607f821691505b6020821081141562003a645762003a6362003a6a565b5b50919050565b7f4e487b7100000000000000000000000000000000000000000000000000000000600052602260045260246000fd5b6000601f19601f8301169050919050565b6144e58062003aba6000396000f3fe608060405234801561001057600080fd5b50600436106101215760003560e01c806370a08231116100ad578063b88d4fde11610071578063b88d4fde14610352578063c575757a1461036e578063c87b56dd1461039e578063de9d132f146103ce578063e985e9c5146103d857610121565b806370a082311461028857806395d89b41146102b8578063a22cb465146102d6578063b187301f146102f2578063b3ab389d1461032257610121565b806323b872dd116100f457806323b872dd146101c05780632de38d68146101dc57806342842e0e1461020c578063514dc8c6146102285780636352211e1461025857610121565b806301ffc9a71461012657806306fdde0314610156578063081812fc14610174578063095ea7b3146101a4575b600080fd5b610140600480360381019061013b9190612f58565b610408565b60405161014d9190613d20565b60405180910390f35b61015e6104ea565b60405161016b9190613d3b565b60405180910390f35b61018e60048036038101906101899190612feb565b61057c565b60405161019b9190613c90565b60405180910390f35b6101be60048036038101906101b99190612f1c565b610601565b005b6101da60048036038101906101d59190612e16565b610719565b005b6101f660048036038101906101f19190612feb565b610779565b6040516102039190613d3b565b60405180910390f35b61022660048036038101906102219190612e16565b610897565b005b610242600480360381019061023d9190612feb565b6108b7565b60405161024f9190613d3b565b60405180910390f35b610272600480360381019061026d9190612feb565b6109d5565b60405161027f9190613c90565b60405180910390f35b6102a2600480360381019061029d9190612db1565b610a87565b6040516102af9190613f9b565b60405180910390f35b6102c0610b3f565b6040516102cd9190613d3b565b60405180910390f35b6102f060048036038101906102eb9190612ee0565b610bd1565b005b61030c60048036038101906103079190612feb565b610d52565b6040516103199190613d3b565b60405180910390f35b61033c60048036038101906103379190612faa565b610e70565b6040516103499190613d3b565b60405180910390f35b61036c60048036038101906103679190612e65565b610fae565b005b61038860048036038101906103839190612feb565b611010565b6040516103959190613d3b565b60405180910390f35b6103b860048036038101906103b39190612feb565b61112e565b6040516103c59190613d3b565b60405180910390f35b6103d6611280565b005b6103f260048036038101906103ed9190612dda565b611a70565b6040516103ff9190613d20565b60405180910390f35b60007f80ac58cd000000000000000000000000000000000000000000000000000000007bffffffffffffffffffffffffffffffffffffffffffffffffffffffff1916827bffffffffffffffffffffffffffffffffffffffffffffffffffffffff191614806104d357507f5b5e139f000000000000000000000000000000000000000000000000000000007bffffffffffffffffffffffffffffffffffffffffffffffffffffffff1916827bffffffffffffffffffffffffffffffffffffffffffffffffffffffff1916145b806104e357506104e282611b9d565b5b9050919050565b6060600080546104f990614275565b80601f016020809104026020016040519081016040528092919081815260200182805461052590614275565b80156105725780601f1061054757610100808354040283529160200191610572565b820191906000526020600020905b81548152906001019060200180831161055557829003601f168201915b5050505050905090565b600061058782611c07565b6105c6576040517f08c379a00000000000000000000000000000000000000000000000000000000081526004016105bd90613efb565b60405180910390fd5b6004600083815260200190815260200160002060009054906101000a900473ffffffffffffffffffffffffffffffffffffffff169050919050565b600061060c826109d5565b90508073ffffffffffffffffffffffffffffffffffffffff168373ffffffffffffffffffffffffffffffffffffffff16141561067d576040517f08c379a000000000000000000000000000000000000000000000000000000000815260040161067490613f5b565b60405180910390fd5b8073ffffffffffffffffffffffffffffffffffffffff1661069c611c73565b73ffffffffffffffffffffffffffffffffffffffff1614806106cb57506106ca816106c5611c73565b611a70565b5b61070a576040517f08c379a000000000000000000000000000000000000000000000000000000000815260040161070190613e3b565b60405180910390fd5b6107148383611c7b565b505050565b61072a610724611c73565b82611d34565b610769576040517f08c379a000000000000000000000000000000000000000000000000000000000815260040161076090613f7b565b60405180910390fd5b610774838383611e12565b505050565b606060006107ad6107898461206e565b6040516020016107999190613c08565b60405160208183030381529060405261221b565b9050600c80549050816107c091906142f0565b9050600c81815481106107fc577f4e487b7100000000000000000000000000000000000000000000000000000000600052603260045260246000fd5b90600052602060002001805461081190614275565b80601f016020809104026020016040519081016040528092919081815260200182805461083d90614275565b801561088a5780601f1061085f5761010080835404028352916020019161088a565b820191906000526020600020905b81548152906001019060200180831161086d57829003601f168201915b5050505050915050919050565b6108b283838360405180602001604052806000815250610fae565b505050565b606060006108eb6108c78461206e565b6040516020016108d79190613c6e565b60405160208183030381529060405261221b565b9050600f80549050816108fe91906142f0565b9050600f818154811061093a577f4e487b7100000000000000000000000000000000000000000000000000000000600052603260045260246000fd5b90600052602060002001805461094f90614275565b80601f016020809104026020016040519081016040528092919081815260200182805461097b90614275565b80156109c85780601f1061099d576101008083540402835291602001916109c8565b820191906000526020600020905b8154815290600101906020018083116109ab57829003601f168201915b5050505050915050919050565b6000806002600084815260200190815260200160002060009054906101000a900473ffffffffffffffffffffffffffffffffffffffff169050600073ffffffffffffffffffffffffffffffffffffffff168173ffffffffffffffffffffffffffffffffffffffff161415610a7e576040517f08c379a0000000000000000000000000000000000000000000000000000000008152600401610a7590613e7b565b60405180910390fd5b80915050919050565b60008073ffffffffffffffffffffffffffffffffffffffff168273ffffffffffffffffffffffffffffffffffffffff161415610af8576040517f08c379a0000000000000000000000000000000000000000000000000000000008152600401610aef90613e5b565b60405180910390fd5b600360008373ffffffffffffffffffffffffffffffffffffffff1673ffffffffffffffffffffffffffffffffffffffff168152602001908152602001600020549050919050565b606060018054610b4e90614275565b80601f0160208091040260200160405190810160405280929190818152602001828054610b7a90614275565b8015610bc75780601f10610b9c57610100808354040283529160200191610bc7565b820191906000526020600020905b815481529060010190602001808311610baa57829003601f168201915b5050505050905090565b610bd9611c73565b73ffffffffffffffffffffffffffffffffffffffff168273ffffffffffffffffffffffffffffffffffffffff161415610c47576040517f08c379a0000000000000000000000000000000000000000000000000000000008152600401610c3e90613dfb565b60405180910390fd5b8060056000610c54611c73565b73ffffffffffffffffffffffffffffffffffffffff1673ffffffffffffffffffffffffffffffffffffffff16815260200190815260200160002060008473ffffffffffffffffffffffffffffffffffffffff1673ffffffffffffffffffffffffffffffffffffffff16815260200190815260200160002060006101000a81548160ff0219169083151502179055508173ffffffffffffffffffffffffffffffffffffffff16610d01611c73565b73ffffffffffffffffffffffffffffffffffffffff167f17307eab39ab6107e8899845ad3d59bd9653f200f220920489ca2b5937696c3183604051610d469190613d20565b60405180910390a35050565b60606000610d86610d628461206e565b604051602001610d729190613c4c565b60405160208183030381529060405261221b565b9050600d8054905081610d9991906142f0565b9050600d8181548110610dd5577f4e487b7100000000000000000000000000000000000000000000000000000000600052603260045260246000fd5b906000526020600020018054610dea90614275565b80601f0160208091040260200160405190810160405280929190818152602001828054610e1690614275565b8015610e635780601f10610e3857610100808354040283529160200191610e63565b820191906000526020600020905b815481529060010190602001808311610e4657829003601f168201915b5050505050915050919050565b60608160089080519060200190610e88929190612a7c565b50610f1c60088054610e9990614275565b80601f0160208091040260200160405190810160405280929190818152602001828054610ec590614275565b8015610f125780601f10610ee757610100808354040283529160200191610f12565b820191906000526020600020905b815481529060010190602001808311610ef557829003601f168201915b5050505050611b04565b60088054610f2990614275565b80601f0160208091040260200160405190810160405280929190818152602001828054610f5590614275565b8015610fa25780601f10610f7757610100808354040283529160200191610fa2565b820191906000526020600020905b815481529060010190602001808311610f8557829003601f168201915b50505050509050919050565b610fbf610fb9611c73565b83611d34565b610ffe576040517f08c379a0000000000000000000000000000000000000000000000000000000008152600401610ff590613f7b565b60405180910390fd5b61100a8484848461224e565b50505050565b606060006110446110208461206e565b6040516020016110309190613b96565b60405160208183030381529060405261221b565b9050600e805490508161105791906142f0565b9050600e8181548110611093577f4e487b7100000000000000000000000000000000000000000000000000000000600052603260045260246000fd5b9060005260206000200180546110a890614275565b80601f01602080910402602001604051908101604052809291908181526020018280546110d490614275565b80156111215780601f106110f657610100808354040283529160200191611121565b820191906000526020600020905b81548152906001019060200180831161110457829003601f168201915b5050505050915050919050565b606061113982611c07565b611178576040517f08c379a000000000000000000000000000000000000000000000000000000000815260040161116f90613edb565b60405180910390fd5b600060066000848152602001908152602001600020805461119890614275565b80601f01602080910402602001604051908101604052809291908181526020018280546111c490614275565b80156112115780601f106111e657610100808354040283529160200191611211565b820191906000526020600020905b8154815290600101906020018083116111f457829003601f168201915b5050505050905060006112226122aa565b905060008151141561123857819250505061127b565b60008251111561126d578082604051602001611255929190613ab1565b6040516020818303038152906040529250505061127b565b611276846122c1565b925050505b919050565b600061128c6007612368565b905060606040518060400160405280600481526020017f416d756e000000000000000000000000000000000000000000000000000000008152508051906020012060086040516112dc9190613a83565b60405180910390201415611360576040518060400160405280601f81526020017f68747470733a2f2f692e696d6775722e636f6d2f654430473168382e706e670081525090506019600c908054611334929190612b02565b50601a600d908054611347929190612b02565b50601b600e90805461135a929190612b02565b506116ab565b6040518060400160405280600281526020017f52610000000000000000000000000000000000000000000000000000000000008152508051906020012060086040516113ac9190613a83565b60405180910390201415611430576040518060400160405280601f81526020017f68747470733a2f2f692e696d6775722e636f6d2f574763367a51532e706e670081525090506013600c908054611404929190612b02565b506014600d908054611417929190612b02565b506015600e90805461142a929190612b02565b506116aa565b6040518060400160405280600681526020017f536573686174000000000000000000000000000000000000000000000000000081525080519060200120600860405161147c9190613a83565b60405180910390201415611500576040518060400160405280601f81526020017f68747470733a2f2f692e696d6775722e636f6d2f686f36746f70792e706e670081525090506016600c9080546114d4929190612b02565b506017600d9080546114e7929190612b02565b506018600e9080546114fa929190612b02565b506116a9565b6040518060400160405280600b81526020017f547574616e6b68616d756e00000000000000000000000000000000000000000081525080519060200120600860405161154c9190613a83565b604051809103902014156115d0576040518060400160405280601f81526020017f68747470733a2f2f692e696d6775722e636f6d2f6d4d6451644e432e706e670081525090506010600c9080546115a4929190612b02565b506011600d9080546115b7929190612b02565b506012600e9080546115ca929190612b02565b506116a8565b6040518060400160405280600481526020017f486170690000000000000000000000000000000000000000000000000000000081525080519060200120600860405161161c9190613a83565b604051809103902014156116a0576040518060400160405280601f81526020017f68747470733a2f2f692e696d6775722e636f6d2f536869596158382e706e67008152509050601c600c908054611674929190612b02565b50601d600d908054611687929190612b02565b50601e600e90805461169a929190612b02565b506116a7565b5050611a6e565b5b5b5b5b6000600980546116ba90614275565b80601f01602080910402602001604051908101604052809291908181526020018280546116e690614275565b80156117335780601f1061170857610100808354040283529160200191611733565b820191906000526020600020905b81548152906001019060200180831161171657829003601f168201915b505050505090506000600a805461174990614275565b80601f016020809104026020016040519081016040528092919081815260200182805461177590614275565b80156117c25780601f10611797576101008083540402835291602001916117c2565b820191906000526020600020905b8154815290600101906020018083116117a557829003601f168201915b5050505050905060006117d4856108b7565b90506000600b80546117e590614275565b80601f016020809104026020016040519081016040528092919081815260200182805461181190614275565b801561185e5780601f106118335761010080835404028352916020019161185e565b820191906000526020600020905b81548152906001019060200180831161184157829003601f168201915b5050505050905060008486858585604051602001611880959493929190613ad5565b6040516020818303038152906040529050600061189c88610779565b905060006118a989610d52565b905060006118b68a611010565b905060008383836040516020016118cf93929190613b4f565b6040516020818303038152906040529050600085826040516020016118f5929190613b20565b6040516020818303038152906040529050600061193a8361191584612376565b604051602001611926929190613bb8565b604051602081830303815290604052612376565b905060008160405160200161194f9190613c2a565b604051602081830303815290604052905061199e6040518060400160405280601581526020017f0a2d2d2d2d2d2d2d2d2d2d2d2d2d2d2d2d2d2d2d2d0000000000000000000000815250611b04565b6119a781611b04565b6119e56040518060400160405280601581526020017f2d2d2d2d2d2d2d2d2d2d2d2d2d2d2d2d2d2d2d2d0a0000000000000000000000815250611b04565b6119ef338f612534565b6119f98e82612552565b611a1c60405180606001604052806025815260200161444b602591398f336125c6565b611a266007612665565b7fa42ea95c2cfd805318b4e3e9d3f6cda1655b371d1c9864bddcb51dfb2c981225338f604051611a57929190613cf7565b60405180910390a150505050505050505050505050505b565b6000600560008473ffffffffffffffffffffffffffffffffffffffff1673ffffffffffffffffffffffffffffffffffffffff16815260200190815260200160002060008373ffffffffffffffffffffffffffffffffffffffff1673ffffffffffffffffffffffffffffffffffffffff16815260200190815260200160002060009054906101000a900460ff16905092915050565b611b9a81604051602401611b189190613d3b565b6040516020818303038152906040527f41304fac000000000000000000000000000000000000000000000000000000007bffffffffffffffffffffffffffffffffffffffffffffffffffffffff19166020820180517bffffffffffffffffffffffffffffffffffffffffffffffffffffffff838183161783525050505061267b565b50565b60007f01ffc9a7000000000000000000000000000000000000000000000000000000007bffffffffffffffffffffffffffffffffffffffffffffffffffffffff1916827bffffffffffffffffffffffffffffffffffffffffffffffffffffffff1916149050919050565b60008073ffffffffffffffffffffffffffffffffffffffff166002600084815260200190815260200160002060009054906101000a900473ffffffffffffffffffffffffffffffffffffffff1673ffffffffffffffffffffffffffffffffffffffff1614159050919050565b600033905090565b816004600083815260200190815260200160002060006101000a81548173ffffffffffffffffffffffffffffffffffffffff021916908373ffffffffffffffffffffffffffffffffffffffff160217905550808273ffffffffffffffffffffffffffffffffffffffff16611cee836109d5565b73ffffffffffffffffffffffffffffffffffffffff167f8c5be1e5ebec7d5bd14f71427d1e84f3dd0314c0f7b2291e5b200ac8c7c3b92560405160405180910390a45050565b6000611d3f82611c07565b611d7e576040517f08c379a0000000000000000000000000000000000000000000000000000000008152600401611d7590613e1b565b60405180910390fd5b6000611d89836109d5565b90508073ffffffffffffffffffffffffffffffffffffffff168473ffffffffffffffffffffffffffffffffffffffff161480611df857508373ffffffffffffffffffffffffffffffffffffffff16611de08461057c565b73ffffffffffffffffffffffffffffffffffffffff16145b80611e095750611e088185611a70565b5b91505092915050565b8273ffffffffffffffffffffffffffffffffffffffff16611e32826109d5565b73ffffffffffffffffffffffffffffffffffffffff1614611e88576040517f08c379a0000000000000000000000000000000000000000000000000000000008152600401611e7f90613f1b565b60405180910390fd5b600073ffffffffffffffffffffffffffffffffffffffff168273ffffffffffffffffffffffffffffffffffffffff161415611ef8576040517f08c379a0000000000000000000000000000000000000000000000000000000008152600401611eef90613ddb565b60405180910390fd5b611f038383836126a4565b611f0e600082611c7b565b6001600360008573ffffffffffffffffffffffffffffffffffffffff1673ffffffffffffffffffffffffffffffffffffffff1681526020019081526020016000206000828254611f5e919061418b565b925050819055506001600360008473ffffffffffffffffffffffffffffffffffffffff1673ffffffffffffffffffffffffffffffffffffffff1681526020019081526020016000206000828254611fb591906140aa565b92505081905550816002600083815260200190815260200160002060006101000a81548173ffffffffffffffffffffffffffffffffffffffff021916908373ffffffffffffffffffffffffffffffffffffffff160217905550808273ffffffffffffffffffffffffffffffffffffffff168473ffffffffffffffffffffffffffffffffffffffff167fddf252ad1be2c89b69c2b068fc378daa952ba7f163c4a11628f55a4df523b3ef60405160405180910390a4505050565b606060008214156120b6576040518060400160405280600181526020017f30000000000000000000000000000000000000000000000000000000000000008152509050612216565b600082905060005b600082146120e85780806120d1906142a7565b915050600a826120e19190614100565b91506120be565b60008167ffffffffffffffff81111561212a577f4e487b7100000000000000000000000000000000000000000000000000000000600052604160045260246000fd5b6040519080825280601f01601f19166020018201604052801561215c5781602001600182028036833780820191505090505b5090505b6000851461220f57600182612175919061418b565b9150600a8561218491906142f0565b603061219091906140aa565b60f81b8183815181106121cc577f4e487b7100000000000000000000000000000000000000000000000000000000600052603260045260246000fd5b60200101907effffffffffffffffffffffffffffffffffffffffffffffffffffffffffffff1916908160001a905350600a856122089190614100565b9450612160565b8093505050505b919050565b60008160405160200161222e9190613a9a565b6040516020818303038152906040528051906020012060001c9050919050565b612259848484611e12565b612265848484846126a9565b6122a4576040517f08c379a000000000000000000000000000000000000000000000000000000000815260040161229b90613d9b565b60405180910390fd5b50505050565b606060405180602001604052806000815250905090565b60606122cc82611c07565b61230b576040517f08c379a000000000000000000000000000000000000000000000000000000000815260040161230290613f3b565b60405180910390fd5b60006123156122aa565b905060008151116123355760405180602001604052806000815250612360565b8061233f8461206e565b604051602001612350929190613ab1565b6040516020818303038152906040525b915050919050565b600081600001549050919050565b6060600082519050600081141561239f576040518060200160405280600081525091505061252f565b600060036002836123b091906140aa565b6123ba9190614100565b60046123c69190614131565b905060006020826123d791906140aa565b67ffffffffffffffff811115612416577f4e487b7100000000000000000000000000000000000000000000000000000000600052604160045260246000fd5b6040519080825280601f01601f1916602001820160405280156124485781602001600182028036833780820191505090505b5090506000604051806060016040528060408152602001614470604091399050600181016020830160005b868110156124ec5760038101905062ffffff818a015116603f8160121c168401518060081b905060ff603f83600c1c1686015116810190508060081b905060ff603f8360061c1686015116810190508060081b905060ff603f831686015116810190508060e01b90508084526004840193505050612473565b506003860660018114612506576002811461251657612521565b613d3d60f01b6002830352612521565b603d60f81b60018303525b508484525050819450505050505b919050565b61254e828260405180602001604052806000815250612840565b5050565b61255b82611c07565b61259a576040517f08c379a000000000000000000000000000000000000000000000000000000000815260040161259190613e9b565b60405180910390fd5b806006600084815260200190815260200160002090805190602001906125c1929190612a7c565b505050565b6126608383836040516024016125de93929190613d5d565b6040516020818303038152906040527fe3849f79000000000000000000000000000000000000000000000000000000007bffffffffffffffffffffffffffffffffffffffffffffffffffffffff19166020820180517bffffffffffffffffffffffffffffffffffffffffffffffffffffffff838183161783525050505061267b565b505050565b6001816000016000828254019250508190555050565b60008151905060006a636f6e736f6c652e6c6f679050602083016000808483855afa5050505050565b505050565b60006126ca8473ffffffffffffffffffffffffffffffffffffffff1661289b565b15612833578373ffffffffffffffffffffffffffffffffffffffff1663150b7a026126f3611c73565b8786866040518563ffffffff1660e01b81526004016127159493929190613cab565b602060405180830381600087803b15801561272f57600080fd5b505af192505050801561276057506040513d601f19601f8201168201806040525081019061275d9190612f81565b60015b6127e3573d8060008114612790576040519150601f19603f3d011682016040523d82523d6000602084013e612795565b606091505b506000815114156127db576040517f08c379a00000000000000000000000000000000000000000000000000000000081526004016127d290613d9b565b60405180910390fd5b805181602001fd5b63150b7a0260e01b7bffffffffffffffffffffffffffffffffffffffffffffffffffffffff1916817bffffffffffffffffffffffffffffffffffffffffffffffffffffffff191614915050612838565b600190505b949350505050565b61284a83836128ae565b61285760008484846126a9565b612896576040517f08c379a000000000000000000000000000000000000000000000000000000000815260040161288d90613d9b565b60405180910390fd5b505050565b600080823b905060008111915050919050565b600073ffffffffffffffffffffffffffffffffffffffff168273ffffffffffffffffffffffffffffffffffffffff16141561291e576040517f08c379a000000000000000000000000000000000000000000000000000000000815260040161291590613ebb565b60405180910390fd5b61292781611c07565b15612967576040517f08c379a000000000000000000000000000000000000000000000000000000000815260040161295e90613dbb565b60405180910390fd5b612973600083836126a4565b6001600360008473ffffffffffffffffffffffffffffffffffffffff1673ffffffffffffffffffffffffffffffffffffffff16815260200190815260200160002060008282546129c391906140aa565b92505081905550816002600083815260200190815260200160002060006101000a81548173ffffffffffffffffffffffffffffffffffffffff021916908373ffffffffffffffffffffffffffffffffffffffff160217905550808273ffffffffffffffffffffffffffffffffffffffff16600073ffffffffffffffffffffffffffffffffffffffff167fddf252ad1be2c89b69c2b068fc378daa952ba7f163c4a11628f55a4df523b3ef60405160405180910390a45050565b828054612a8890614275565b90600052602060002090601f016020900481019282612aaa5760008555612af1565b82601f10612ac357805160ff1916838001178555612af1565b82800160010185558215612af1579182015b82811115612af0578251825591602001919060010190612ad5565b5b509050612afe9190612b6a565b5090565b828054828255906000526020600020908101928215612b595760005260206000209182015b82811115612b58578282908054612b3d90614275565b612b48929190612b87565b5091600101919060010190612b27565b5b509050612b669190612c14565b5090565b5b80821115612b83576000816000905550600101612b6b565b5090565b828054612b9390614275565b90600052602060002090601f016020900481019282612bb55760008555612c03565b82601f10612bc65780548555612c03565b82800160010185558215612c0357600052602060002091601f016020900482015b82811115612c02578254825591600101919060010190612be7565b5b509050612c109190612b6a565b5090565b5b80821115612c345760008181612c2b9190612c38565b50600101612c15565b5090565b508054612c4490614275565b6000825580601f10612c565750612c75565b601f016020900490600052602060002090810190612c749190612b6a565b5b50565b6000612c8b612c8684613fe7565b613fb6565b905082815260208101848484011115612ca357600080fd5b612cae848285614233565b509392505050565b6000612cc9612cc484614017565b613fb6565b905082815260208101848484011115612ce157600080fd5b612cec848285614233565b509392505050565b600081359050612d03816143ee565b92915050565b600081359050612d1881614405565b92915050565b600081359050612d2d8161441c565b92915050565b600081519050612d428161441c565b92915050565b600082601f830112612d5957600080fd5b8135612d69848260208601612c78565b91505092915050565b600082601f830112612d8357600080fd5b8135612d93848260208601612cb6565b91505092915050565b600081359050612dab81614433565b92915050565b600060208284031215612dc357600080fd5b6000612dd184828501612cf4565b91505092915050565b60008060408385031215612ded57600080fd5b6000612dfb85828601612cf4565b9250506020612e0c85828601612cf4565b9150509250929050565b600080600060608486031215612e2b57600080fd5b6000612e3986828701612cf4565b9350506020612e4a86828701612cf4565b9250506040612e5b86828701612d9c565b9150509250925092565b60008060008060808587031215612e7b57600080fd5b6000612e8987828801612cf4565b9450506020612e9a87828801612cf4565b9350506040612eab87828801612d9c565b925050606085013567ffffffffffffffff811115612ec857600080fd5b612ed487828801612d48565b91505092959194509250565b60008060408385031215612ef357600080fd5b6000612f0185828601612cf4565b9250506020612f1285828601612d09565b9150509250929050565b60008060408385031215612f2f57600080fd5b6000612f3d85828601612cf4565b9250506020612f4e85828601612d9c565b9150509250929050565b600060208284031215612f6a57600080fd5b6000612f7884828501612d1e565b91505092915050565b600060208284031215612f9357600080fd5b6000612fa184828501612d33565b91505092915050565b600060208284031215612fbc57600080fd5b600082013567ffffffffffffffff811115612fd657600080fd5b612fe284828501612d72565b91505092915050565b600060208284031215612ffd57600080fd5b600061300b84828501612d9c565b91505092915050565b61301d816141bf565b82525050565b61302c816141d1565b82525050565b600061303d8261405c565b6130478185614072565b9350613057818560208601614242565b613060816143dd565b840191505092915050565b6000815461307881614275565b6130828186614083565b9450600182166000811461309d57600181146130ae576130e1565b60ff198316865281860193506130e1565b6130b785614047565b60005b838110156130d9578154818901526001820191506020810190506130ba565b838801955050505b50505092915050565b60006130f582614067565b6130ff818561408e565b935061310f818560208601614242565b613118816143dd565b840191505092915050565b600061312e82614067565b613138818561409f565b9350613148818560208601614242565b80840191505092915050565b600061316160328361408e565b91507f4552433732313a207472616e7366657220746f206e6f6e20455243373231526560008301527f63656976657220696d706c656d656e74657200000000000000000000000000006020830152604082019050919050565b60006131c7601c8361408e565b91507f4552433732313a20746f6b656e20616c7265616479206d696e746564000000006000830152602082019050919050565b6000613207600a8361409f565b91507f54484952445f574f5244000000000000000000000000000000000000000000006000830152600a82019050919050565b600061324760468361409f565b91507f222c20226465736372697074696f6e223a20224120686967686c79206163636c60008301527f61696d656420636f6c6c656374696f6e206f6620456779707469616e204e544660208301527f732076312e2200000000000000000000000000000000000000000000000000006040830152604682019050919050565b60006132d360248361408e565b91507f4552433732313a207472616e7366657220746f20746865207a65726f2061646460008301527f72657373000000000000000000000000000000000000000000000000000000006020830152604082019050919050565b600061333960198361408e565b91507f4552433732313a20617070726f766520746f2063616c6c6572000000000000006000830152602082019050919050565b6000613379602c8361408e565b91507f4552433732313a206f70657261746f7220717565727920666f72206e6f6e657860008301527f697374656e7420746f6b656e00000000000000000000000000000000000000006020830152604082019050919050565b60006133df600d8361409f565b91507f3c2f746578743e3c2f7376673e000000000000000000000000000000000000006000830152600d82019050919050565b600061341f60018361409f565b91507f20000000000000000000000000000000000000000000000000000000000000006000830152600182019050919050565b600061345f60388361408e565b91507f4552433732313a20617070726f76652063616c6c6572206973206e6f74206f7760008301527f6e6572206e6f7220617070726f76656420666f7220616c6c00000000000000006020830152604082019050919050565b60006134c5602a8361408e565b91507f4552433732313a2062616c616e636520717565727920666f7220746865207a6560008301527f726f2061646472657373000000000000000000000000000000000000000000006020830152604082019050919050565b600061352b60298361408e565b91507f4552433732313a206f776e657220717565727920666f72206e6f6e657869737460008301527f656e7420746f6b656e00000000000000000000000000000000000000000000006020830152604082019050919050565b6000613591602e8361408e565b91507f45524337323155524953746f726167653a2055524920736574206f66206e6f6e60008301527f6578697374656e7420746f6b656e0000000000000000000000000000000000006020830152604082019050919050565b60006135f760248361409f565b91507f22696d616765223a2022646174613a696d6167652f7376672b786d6c3b62617360008301527f6536342c000000000000000000000000000000000000000000000000000000006020830152602482019050919050565b600061365d60028361409f565b91507f227d0000000000000000000000000000000000000000000000000000000000006000830152600282019050919050565b600061369d60208361408e565b91507f4552433732313a206d696e7420746f20746865207a65726f20616464726573736000830152602082019050919050565b60006136dd60318361408e565b91507f45524337323155524953746f726167653a2055524920717565727920666f722060008301527f6e6f6e6578697374656e7420746f6b656e0000000000000000000000000000006020830152604082019050919050565b6000613743602c8361408e565b91507f4552433732313a20617070726f76656420717565727920666f72206e6f6e657860008301527f697374656e7420746f6b656e00000000000000000000000000000000000000006020830152604082019050919050565b60006137a960298361408e565b91507f4552433732313a207472616e73666572206f6620746f6b656e2074686174206960008301527f73206e6f74206f776e00000000000000000000000000000000000000000000006020830152604082019050919050565b600061380f602f8361408e565b91507f4552433732314d657461646174613a2055524920717565727920666f72206e6f60008301527f6e6578697374656e7420746f6b656e00000000000000000000000000000000006020830152604082019050919050565b6000613875600a8361409f565b91507f7b226e616d65223a2022000000000000000000000000000000000000000000006000830152600a82019050919050565b60006138b560218361408e565b91507f4552433732313a20617070726f76616c20746f2063757272656e74206f776e6560008301527f72000000000000000000000000000000000000000000000000000000000000006020830152604082019050919050565b600061391b600a8361409f565b91507f46495253545f574f5244000000000000000000000000000000000000000000006000830152600a82019050919050565b600061395b601d8361409f565b91507f646174613a6170706c69636174696f6e2f6a736f6e3b6261736536342c0000006000830152601d82019050919050565b600061399b60318361408e565b91507f4552433732313a207472616e736665722063616c6c6572206973206e6f74206f60008301527f776e6572206e6f7220617070726f7665640000000000000000000000000000006020830152604082019050919050565b6000613a01600d8361409f565b91507f205345434f4e445f574f524420000000000000000000000000000000000000006000830152600d82019050919050565b6000613a4160058361409f565b91507f434f4c4f520000000000000000000000000000000000000000000000000000006000830152600582019050919050565b613a7d81614229565b82525050565b6000613a8f828461306b565b915081905092915050565b6000613aa68284613123565b915081905092915050565b6000613abd8285613123565b9150613ac98284613123565b91508190509392505050565b6000613ae18288613123565b9150613aed8287613123565b9150613af98286613123565b9150613b058285613123565b9150613b118284613123565b91508190509695505050505050565b6000613b2c8285613123565b9150613b388284613123565b9150613b43826133d2565b91508190509392505050565b6000613b5b8286613123565b9150613b6682613412565b9150613b728285613123565b9150613b7d82613412565b9150613b898284613123565b9150819050949350505050565b6000613ba1826131fa565b9150613bad8284613123565b915081905092915050565b6000613bc382613868565b9150613bcf8285613123565b9150613bda8261323a565b9150613be5826135ea565b9150613bf18284613123565b9150613bfc82613650565b91508190509392505050565b6000613c138261390e565b9150613c1f8284613123565b915081905092915050565b6000613c358261394e565b9150613c418284613123565b915081905092915050565b6000613c57826139f4565b9150613c638284613123565b915081905092915050565b6000613c7982613a34565b9150613c858284613123565b915081905092915050565b6000602082019050613ca56000830184613014565b92915050565b6000608082019050613cc06000830187613014565b613ccd6020830186613014565b613cda6040830185613a74565b8181036060830152613cec8184613032565b905095945050505050565b6000604082019050613d0c6000830185613014565b613d196020830184613a74565b9392505050565b6000602082019050613d356000830184613023565b92915050565b60006020820190508181036000830152613d5581846130ea565b905092915050565b60006060820190508181036000830152613d7781866130ea565b9050613d866020830185613a74565b613d936040830184613014565b949350505050565b60006020820190508181036000830152613db481613154565b9050919050565b60006020820190508181036000830152613dd4816131ba565b9050919050565b60006020820190508181036000830152613df4816132c6565b9050919050565b60006020820190508181036000830152613e148161332c565b9050919050565b60006020820190508181036000830152613e348161336c565b9050919050565b60006020820190508181036000830152613e5481613452565b9050919050565b60006020820190508181036000830152613e74816134b8565b9050919050565b60006020820190508181036000830152613e948161351e565b9050919050565b60006020820190508181036000830152613eb481613584565b9050919050565b60006020820190508181036000830152613ed481613690565b9050919050565b60006020820190508181036000830152613ef4816136d0565b9050919050565b60006020820190508181036000830152613f1481613736565b9050919050565b60006020820190508181036000830152613f348161379c565b9050919050565b60006020820190508181036000830152613f5481613802565b9050919050565b60006020820190508181036000830152613f74816138a8565b9050919050565b60006020820190508181036000830152613f948161398e565b9050919050565b6000602082019050613fb06000830184613a74565b92915050565b6000604051905081810181811067ffffffffffffffff82111715613fdd57613fdc6143ae565b5b8060405250919050565b600067ffffffffffffffff821115614002576140016143ae565b5b601f19601f8301169050602081019050919050565b600067ffffffffffffffff821115614032576140316143ae565b5b601f19601f8301169050602081019050919050565b60008190508160005260206000209050919050565b600081519050919050565b600081519050919050565b600082825260208201905092915050565b600081905092915050565b600082825260208201905092915050565b600081905092915050565b60006140b582614229565b91506140c083614229565b9250827fffffffffffffffffffffffffffffffffffffffffffffffffffffffffffffffff038211156140f5576140f4614321565b5b828201905092915050565b600061410b82614229565b915061411683614229565b92508261412657614125614350565b5b828204905092915050565b600061413c82614229565b915061414783614229565b9250817fffffffffffffffffffffffffffffffffffffffffffffffffffffffffffffffff04831182151516156141805761417f614321565b5b828202905092915050565b600061419682614229565b91506141a183614229565b9250828210156141b4576141b3614321565b5b828203905092915050565b60006141ca82614209565b9050919050565b60008115159050919050565b60007fffffffff0000000000000000000000000000000000000000000000000000000082169050919050565b600073ffffffffffffffffffffffffffffffffffffffff82169050919050565b6000819050919050565b82818337600083830152505050565b60005b83811015614260578082015181840152602081019050614245565b8381111561426f576000848401525b50505050565b6000600282049050600182168061428d57607f821691505b602082108114156142a1576142a061437f565b5b50919050565b60006142b282614229565b91507fffffffffffffffffffffffffffffffffffffffffffffffffffffffffffffffff8214156142e5576142e4614321565b5b600182019050919050565b60006142fb82614229565b915061430683614229565b92508261431657614315614350565b5b828206905092915050565b7f4e487b7100000000000000000000000000000000000000000000000000000000600052601160045260246000fd5b7f4e487b7100000000000000000000000000000000000000000000000000000000600052601260045260246000fd5b7f4e487b7100000000000000000000000000000000000000000000000000000000600052602260045260246000fd5b7f4e487b7100000000000000000000000000000000000000000000000000000000600052604160045260246000fd5b6000601f19601f8301169050919050565b6143f7816141bf565b811461440257600080fd5b50565b61440e816141d1565b811461441957600080fd5b50565b614425816141dd565b811461443057600080fd5b50565b61443c81614229565b811461444757600080fd5b5056fe416e204e465420772f20494420257320686173206265656e206d696e74656420746f2025734142434445464748494a4b4c4d4e4f505152535455565758595a6162636465666768696a6b6c6d6e6f707172737475767778797a303132333435363738392b2fa26469706673582212207f4fb4f14914af59bf173375746c3d31f5eacf52aab35fe13581d4f163de151a64736f6c6343000800003329272f3e3c7374796c653e2e6d7954657874207b2066696c6c3a20626c61636b3b20666f6e742d66616d696c793a20637572736976653b20666f6e742d73697a653a20313670783b207d3c2f7374796c653e3c7465787420783d273530252720793d273933252720636c6173733d276d79546578742720646f6d696e616e742d626173656c696e653d276d6964646c652720746578742d616e63686f723d276d6964646c65273e272066696c7465723d202764726f702d736861646f7728307078203070782031307078203c7376672077696474683d2733303027206865696768743d27343530273e3c646566733e3c72616469616c4772616469656e742069643d2752616469616c4772616469656e74272063783d27302e35272063793d27302e352720723d27302e35273e3c73746f70206f66667365743d273025272073746f702d636f6c6f723d2779656c6c6f77272f3e3c73746f70206f66667365743d2731303025272073746f702d636f6c6f723d276f72616e6765272f3e3c2f72616469616c4772616469656e743e3c636c6970506174682069643d2764726f70536861646f77273e3c2f636c6970506174683e3c2f646566733e3c726563742077696474683d273130302527206865696768743d2731303025272066696c6c3d2775726c282352616469616c4772616469656e7429272f3e3c696d6167652077696474683d2732353027206865696768743d273335302720793d2732352720687265663d27",
  "linkReferences": {},
  "deployedLinkReferences": {}
}